:020000040000FA
:060000000A128A11FC2F18
:100E3E008312031388110815080083120313081177
:100E4E0088150800831203138812881308170800E8
:100E5E0083120313081388138816080083120313D2
:100E6E008812081388170800831203130808013923
:100E7E00F200F3017208F0007308F100462F08002B
:100E8E008316031388130813881208140813881284
:100E9E00081188118312031308118813081388127E
:100EAE0088110800682FC730F2005D2FF20B5C2FFF
:100EBE00602F612FFF30F0070318F10AFF30F107A2
:100ECE00682F70087104031D6D2F6E2F5A2F6F2F10
:100EDE0008000A128A1147270A128A11F401F50135
:100EEE00DB2FDB2F0A128A112F270A128A110A1200
:100EFE008A1124270A128A110A128A113B270A1212
:100F0E008A1170037104031D8D2F8E2FDB2F01307C
:100F1E00F4000030F500DB2FDB2FB830F0000B3083
:100F2E00F1000A128A1159270A128A110230F400AE
:100F3E000030F500DB2F0330F4000030F500DB2F1E
:100F4E000A128A1129270A128A11D030F0000730AE
:100F5E00F1000A128A1159270A128A110430F4007C
:100F6E000030F500DB2F0530F4000030F500DB2FEC
:100F7E000A128A1135270A128A110A128A111F279C
:100F8E000A128A118830F0001330F1000A128A1109
:100F9E0059270A128A110630F4000030F500DB2FB3
:100FAE00F401F501DB2FDB2F7508003A0319E02F52
:100FBE00DB2F7408003A0319792F013A0319942F85
:100FCE00033A0319A22F013A0319A72F073A03195F
:100FDE00BA2F013A0319BF2F033A0319D72FDB2F6C
:100FEE00DB2FDB2F0A128A11002883010A128A11C5
:020FFE00702F52
:04400E00D4E0FFFFFC
:00000001FF
