:020000040000FA
:060000000A128A11FC2F18
:100F0E00962FC730F2008B2FF20B8A2F8E2F8F2F3A
:100F1E00FF30F0070318F10AFF30F107962F700823
:100F2E007104031D9B2F9C2F882F9D2F0800831665
:100F3E0003138801A22F773083128800D030F0007F
:100F4E000730F1000A128A1187270A128A118312BA
:100F5E00031388017C308800D030F0000730F10098
:100F6E000A128A1187270A128A1183120313880123
:100F7E0039308800D030F0000730F1000A128A11A3
:100F8E0087270A128A118312031388015E308800A4
:100F9E00D030F0000730F1000A128A1187270A12AA
:100FAE008A1183120313880179308800D030F00043
:100FBE000730F1000A128A1187270A128A1183124A
:100FCE000313880171308800D030F0000730F10033
:100FDE000A128A1187270A128A11831203138801B3
:100FEE00A22FA22F0A128A11002883010A128A1137
:020FFE009E2F24
:04400E00D4E0FFFFFC
:00000001FF
